:100000000C947E010C94A6010C94A6010C94A601FC
:100010000C94A6010C94A6010C94A6010C94A601C4
:100020000C94A6010C94A6010C94A6010C94A601B4
:100030000C94A6010C94A6010C94A6010C94A601A4
:100040000C94760A0C94A6010C94A6010C94A601BB
:100050000C94A6010C94A6010C94A6010C94A60184
:100060000C94A6010C94A601E501E801EB01EE0158
:10007000F101F401F701FA01FD010002AD02B40241
:10008000BB02BE02CF02F002F9020B031D034206BF
:100090004B0654065D06660681069C069F06A20670
:1000A000DF06BF0605A84CCDB2D44EB93836A9023A
:1000B0000C50B9918688083CA6AAAA2ABE00000066
:1000C000803F0664EC1B3C04BC163E3BE5B93CC9D2
:1000D0003C37C29E5A3D660498083EEA69AAAA3E89
:1000E000000000803F07634236B79BD8A71A3968E3
:1000F0005618AEBAAB558C1D3CB7CC5763BD6DEDF1
:10010000FD753EF6177231BF000000803F08000009
:1001100000BE922449123EABAAAA2ABECDCCCC4C3A
:100120003E00000080BEABAAAAAA3E00000000BFAD
:10013000000000803F0000000000084178D3BB436E
:1001400087D1133D190E3CC3BD4282AD2B3E68ECF6
:100150008276BED98FE1A93E4C80EFFFBE01C4FF7D
:100160007F3F0000000000004E414E494E49545967
:10017000494E46CDCCCC3D0AD7233C17B7D1387772
:10018000CC2B329595E6241FB14F0A000020410088
:1001900000C84200401C4620BCBE4CCA1B0E5AAED2
:1001A000C59D7400407A10F35A00A0724E180900E1
:1001B00010A5D4E80000E87648170000E40B5402CC
:1001C0000000CA9A3B000000E1F505000080969807
:1001D00000000040420F000000A086010000001057
:1001E0002700000000E80300000000640000000099
:1001F000000A00000000000100000000002C76D87A
:1002000088DC674F0823DFC1DFAE59E1B1B796E55F
:10021000E3E453C63AE651997696E8E6C28426EBC3
:10022000898C9B62ED407C6FFCEFBC9C9F40F2BAD6
:10023000A56FA5F490055A2AF75C936B6CF9676D6E
:10024000C11BFCE0E40D47FEF520E6B500D0ED90C3
:100250002E0300943577050080841E080000204E90
:100260000A000000C80C333333330F986E12831129
:1002700041EF8D2114893BE65516CFFEE6DB18D100
:10028000844B381BF77C1D901DA4BBE424203284D2
:10029000725E228100C9F124ECA1E53D2700000037
:1002A00000240027002A0000000000250028002B61
:1002B00000000000002300260029000404040404B8
:1002C0000404040202020202020303030303030103
:1002D00002040810204080010204081020010204DA
:1002E00008102000000008000201000003040700BD
:1002F00000000000000000008C0E1B0F11241FBE28
:10030000CFEFD8E0DEBFCDBF22E0A2EEB1E001C06A
:100310001D92AA3CB207E1F711E0A0E0B1E0E6E8E7
:10032000F3E302C005900D92A23EB107D9F711E0A8
:10033000CDE7D1E004C02197FE010E94A017CC3781
:10034000D107C9F70E94C00A0C94B6190C9400009A
:10035000CF92DF92EF92FF920F931F93CF93DF9391
:100360006C017A018B01C0E0D0E0CE15DF0581F091
:10037000D8016D918D01D601ED91FC910190F08134
:10038000E02DC6010995892B11F02196EECF7E0153
:10039000C701DF91CF911F910F91FF90EF90DF90F8
:1003A000CF900895089580E090E00895CF93DF9373
:1003B000EC0161E080E00E94E707CA30D10530F52A
:1003C000FE01EC5CFF4F0C94A01789E391E01AC08A
:1003D00082E491E017C08BE491E014C084E591E0E1
:1003E00011C08DE591E00EC086E691E00BC08FE66E
:1003F00091E008C088E791E005C081E891E002C083
:100400008AE891E0DF91CF910C940208DF91CF91BF
:100410000895862F642F0C948208862F642F0C94E5
:100420005308CF93DF93EC0160E08E810E94530864
:1004300061E08E810E94530860E08E810E94530823
:100440008BE891E00197F1F7DF91CF910895862F26
:100450000C942A080E94A1190F931F93CF93DF9346
:100460008C01EB01FC0180819181009739F068815A
:10047000798161157105A1F40E94521888819981D2
:10048000F801918380838A819B81938382838C810D
:100490009D8195838483198218821B821A820FC0E2
:1004A000F801428153812C813D814217530720F38B
:1004B0000E94AF198C819D81F801958384831D82F0
:1004C0001C82DF91CF911F910F910895FC018081D3
:1004D00091810C9452180F931F93CF93DF93EC01EB
:1004E00088819981009729F02A813B812617370757
:1004F00088F48B016F5F7F4F0E94DB18009761F0DB
:10050000998388831B830A832C813D81232B11F4DB
:10051000FC01108281E001C080E0DF91CF911F914A
:100520000F9108954F925F926F927F928F929F9258
:10053000AF92BF92CF92DF92EF92FF920F931F93F1
:100540008930910508F08BC0480159016A017B018F
:10055000FC01E25CFF4F0C94A017A9019801C701B0
:10056000B6010E94691442C0A9019801C701B601F1
:100570000E9468143BC0A901980134C020E030E01B
:10058000A901C501B4010E94F012882309F467C0D3
:10059000A5019401C701B6010E94DA1427C0A90180
:1005A0009801C701B6010E94C6156B017C0120E0CD
:1005B00030E0A9010E94C11520E030E040E05FE397
:1005C00087FD05C0C701B6010E94691404C0C701B8
:1005D000B6010E9468140E944C150E94F71206C0D2
:1005E0009A01AB01C701B6010E9456132B013C01D1
:1005F00036C0CB01BA011F910F91FF90EF90DF90B1
:10060000CF90BF90AF909F908F907F906F905F90B2
:100610004F900C941616CB01BA011F910F91FF90C9
:10062000EF90DF90CF90BF90AF909F908F907F9092
:100630006F905F904F900C94D514CB01BA011F912D
:100640000F91FF90EF90DF90CF90BF90AF909F9071
:100650008F907F906F905F904F900C941E16C30107
:10066000B2011F910F91FF90EF90DF90CF90BF905C
:10067000AF909F908F907F906F905F904F90089574
:10068000EF92FF920F931F93CF93DF936115710544
:1006900011F480E01CC041155105C1F07B01EC0153
:1006A0008C819D818A01080F191FB801CE010E941B
:1006B0006B02882371F3288139818C819D81B70178
:1006C000820F931F0E94AF191D830C8381E0DF917D
:1006D000CF911F910F91FF90EF900895CF93DF93EB
:1006E000EC0188819981009711F00E9452181982BB
:1006F00018821D821C821B821A82DF91CF9108957D
:100700000F931F93CF93DF9300D0CDB7DEB78C014B
:1007100069831A8241E050E0BE016F5F7F4F0E9403
:100720004003811103C0C8010E946E03C8010F90ED
:100730000F90DF91CF911F910F910895CF93DF9389
:10074000EC016115710561F0FB0101900020E9F7F2
:100750003197AF01461B570B0E944003811103C024
:10076000CE010E946E03CE01DF91CF910895EF92EA
:10077000FF920F931F93CF93DF93EC017B018A01CC
:10078000BA010E946B02811104C0CE010E946E0367
:1007900007C01D830C83B701888199810E94AF191E
:1007A000CE01DF91CF911F910F91FF90EF900895AF
:1007B000CF93DF93EC016115710559F0FB010190B6
:1007C0000020E9F73197AF01461B570B0E94B70392
:1007D00002C00E946E03CE01DF91CF910895CF93A6
:1007E000DF93EC01FB018617970761F0608171814F
:1007F0006115710529F0448155810E94B70302C03B
:100800000E946E03CE01DF91CF910895FC01118209
:10081000108213821282158214820C94EF03BF920D
:10082000CF92DF92EF92FF920F931F93CF93DF93BC
:1008300000D000D000D0CDB7DEB780911801811173
:1008400014C060E972E0CE0101960E9406046DE2D8
:10085000CE0101960E948003BC0180E992E00E94D3
:10086000EF03CE0101960E94660280E1E82E82E04D
:10087000F82E01E010E098E0C92ED12C80911B01E8
:1008800090911C019601281B390B20173107B4F4F5
:10089000F701B18060E972E0CE0101960E94060482
:1008A0006B2DCE0101960E948003BC0180E992E08D
:1008B0000E94EF03CE0101960E9466020F5F1F4F58
:1008C000FFEFEF1AFF0A08301105C1F626960FB6A2
:1008D000F894DEBF0FBECDBFDF91CF911F910F9176
:1008E000FF90EF90DF90CF90BF900895FC011182B0
:1008F000108213821282158214826115710551F0E3
:10090000FB0101900020E9F73197AF01461B570B1F
:100910000C94B7030895CF92DF92EF92FF920F935A
:100920001F93CF93DF9300D000D000D0CDB7DEB7B8
:100930006B017C0120E030E0A9010E94C11518166E
:100940002CF427E137EB41ED58E30DC027E137EBFD
:1009500041ED58EBC701B6010E94C115181664F4A9
:1009600020E030E0A901C701B6010E94F01287FF24
:1009700003C083E991E019C020E23CEB4EEB5CE45C
:10098000C701B6010E94C11518161CF48CE991E04C
:100990000CC02FE736E948E15BECC701B6010E94C5
:1009A000F01287FF05C085EA91E00E9402084BC162
:1009B00004EE11E024E047E0C701B6010E942B0FCE
:1009C000E090E201F090E301F80180E090E02191F5
:1009D0002E3209F47C01019683319105C1F7E09232
:1009E000E201F092E30164EE71E088EF91E00E9491
:1009F000D80362E971E0CE0101960E9476048091ED
:100A0000FC019091FD010097E9F087018E159F058B
:100A100008F48C01E091F801F091F901E00FF11F69
:100A2000F08010826091F8017091F901CE01019679
:100A30000E94D8038091F8019091F901FC01E00F28
:100A4000F11FF082BE016F5F7F4F8EEF91E00E9439
:100A50002C02CE0101960E9466020091E2011091E3
:100A6000E301680185E0C80ED11C0F5F1F4FC0165F
:100A7000D10628F4902F812F8601C92ED82E62E945
:100A800071E0CE0101960E947604E090FC01F090A6
:100A9000FD010E151F05F0F4CE14DF0408F47601F5
:100AA000E091F801F091F901EE0DFF1DD080108268
:100AB0006091F8017091F901600F711FCE010196EC
:100AC0000E94D8038091F8019091F901FC01EE0D8C
:100AD000FF1DD082BE016F5F7F4F86E992E00E94CA
:100AE0002C02CE0101960E94660283E090E00E94F3
:100AF000C807FC0180818033C1F482E090E00E944D
:100B0000C807FC018081803381F481E090E00E947D
:100B1000C807FC018081803341F480E090E00E94AE
:100B2000C807FC018081803341F183E090E00E949E
:100B3000C807FC018081803319F582E090E00E94B3
:100B4000C807FC0180818033D9F481E090E00E94E5
:100B5000C807FC018081803399F480E090E00E9416
:100B6000C807FC0110816EEF71E0CE0101960E9472
:100B700006046EE2CE01019634C08EEF91E041C0D2
:100B800083E090E00E94C807FC0180818033E1F19E
:100B900083E090E00E94C807FC018081803379F5F2
:100BA00082E090E00E94C807FC01108181E090E0A3
:100BB0000E94C807FC01008180E090E00E94C80705
:100BC000FC01F0806EEF71E0CE0101960E940604F8
:100BD0006EE2CE0101960E9480036F2D0E94800379
:100BE000602F0E948003612F0E948003BC0188EF68
:100BF00091E00E94EF03CE0101960E94660288EF09
:100C000091E00E94DE071FC082E090E00E94C807CA
:100C1000FC018081803309F0BBCF81E090E00E942D
:100C2000C807FC01108180E090E00E94C807FC0129
:100C300000816EEF71E0CE0101960E9406046EE223
:100C4000CE010196CBCF26960FB6F894DEBF0FBE2D
:100C5000CDBFDF91CF911F910F91FF90EF90DF906B
:100C6000CF900895CF93DF9300D000D000D0CDB7C0
:100C7000DEB78B30910508F0A2C0FC01E95BFF4FA5
:100C80000C94A01760E972E0CE0101960E94060460
:100C90006EEA71E023C060E972E0CE0101960E9425
:100CA000060460EB71E01AC060E972E0CE010196C3
:100CB0000E94060462EB71E011C060E972E0CE01AF
:100CC00001960E94060464EB71E008C060E972E0DE
:100CD000CE0101960E94060466EB71E0CE010196FA
:100CE0000E949E03BC0180E992E00E94EF03CE01C6
:100CF00001960E94660280918E0290918F02019669
:100D00005AC060E972E0CE0101960E94060468EBC9
:100D100071E0CE0101960E949E03BC0180E992E041
:100D20000E94EF03CE0101960E94660280918E021E
:100D300090918F0204963FC06DEB71E005C066ECA8
:100D400071E002C06BEC71E0CE0101960E94760466
:100D5000CE0101960E94140862EC71E00E949E038D
:100D6000BC0180E992E00E94EF03CE0101960E944F
:100D7000660280918E0290918F0207961CC060EDF2
:100D800071E0CE0101960E947604CE0101960E9488
:100D9000140862EC71E00E949E03BC0180E992E0BD
:100DA0000E94EF03CE0101960E94660280918E029E
:100DB00090918F02059690938F0280938E022696D3
:100DC0000FB6F894DEBF0FBECDBFDF91CF9108956F
:100DD000CF92DF92EF92FF920F931F93CF93DF9307
:100DE0006C017C0187E0E80EF11CC0E0D0E0062F2A
:100DF00010E0B8010C2E02C0759567950A94E2F7D1
:100E00006170F70181917F010E9453082196C430DF
:100E1000D10579F7C601DF91CF911F910F91FF9016
:100E2000EF90DF90CF900C941102CF92DF92EF926F
:100E3000FF920F931F93CF93DF93EC01F62E642F55
:100E40008C810E9453088D818F3F19F060E00E94D1
:100E500053088F850F2D10E084FF25C06E0187E0B9
:100E6000C80ED11CE12CF12CB8010E2C02C07595D6
:100E700067950A94E2F76170F60181916F010E9413
:100E80005308FFEFEF1AFF0A88E0E816F10461F754
:100E9000CE01DF91CF911F910F91FF90EF90DF90E6
:100EA000CF900C941102B80184E0759567958A95EE
:100EB000E1F7CE010E94E8066F2DCE01DF91CF91C0
:100EC0001F910F91FF90EF90DF90CF900C94E80668
:100ED00041E00E94150781E090E0089596E0899F27
:100EE000D0011124A15EBD4F90967C936E935F97C5
:100EF00091E091969C93919790918B02E0918C0256
:100F0000F0918D02992339F0309751F0811108C08A
:100F100080913B0204C0309719F05C968C91099443
:100F20000895833081F028F4813099F08230A1F067
:100F300008958730A9F08830B9F08430D1F48091D9
:100F400080008F7D03C0809180008F778093800028
:100F5000089584B58F7702C084B58F7D84BD0895D0
:100F60008091B0008F7703C08091B0008F7D809317
:100F7000B000089540E0682F8CE992E00C941507CA
:100F800081E00E94BA078BE39FE10197F1F7089592
:100F900020919A0230919B028217930738F4209196
:100FA0009602309197022115310529F41092C3025F
:100FB00083EC92E00895820F931F0895FC01448111
:100FC0005581608171818CE992E00C94A8016430B4
:100FD00008F063E09091AF02691710F06FEF690FAE
:100FE000E62FF0E0E456FD4F9489890F80680C9459
:100FF000BA0741E0682F8CE992E00E94150781E072
:1010000090E00895009769F0FC0101900020E9F755
:101010003197AF01481B590BBC018CE992E00C944D
:10102000A80180E090E00895CF93DF93EC01409118
:1010300094025091950260919002709191020E94E9
:101040004003811103C0CE010E946E03CE01DF91E7
:10105000CF910895CF93DF93282F30E0F901ED5120
:10106000FD4F8491F901E153FD4FD491F901E5540D
:10107000FD4FC491CC2391F081110E949107EC2F78
:10108000F0E0EE0FFF1FEF54FD4FA591B491EC91EE
:10109000ED2381E090E021F480E002C080E090E068
:1010A000DF91CF9108951F93CF93DF93282F30E0E6
:1010B000F901ED51FD4F8491F901E153FD4FD491B8
:1010C000F901E554FD4FC491CC23C1F0162F8111D5
:1010D0000E949107EC2FF0E0EE0FFF1FE955FD4F46
:1010E000A591B4919FB7F894111104C08C91D0953B
:1010F000D82302C0EC91DE2BDC939FBFDF91CF9110
:101100001F910895CF93DF9390E0FC01E153FD4FD1
:101110002491FC01E554FD4F8491882361F190E016
:10112000880F991FFC01E356FD4FC591D491FC0136
:10113000E955FD4FA591B491611109C09FB7F8948D
:101140008881209582238883EC912E230BC0623006
:1011500061F49FB7F8948881322F30958323888378
:10116000EC912E2B2C939FBF06C08FB7F894E8818B
:101170002E2B28838FBFDF91CF910895CF93DF93DC
:10118000623028F09091AB0298609093AB0260932C
:10119000AF021092B00290E49093B1028093B20239
:1011A00090E0805C9F4F8093B30261E08091A00249
:1011B0000E9482088091A1028F3F19F061E00E9495
:1011C000820861E08091A2020E948208CCE9D2E00C
:1011D0009E012C5932408091AB0284FD03C084E013
:1011E00090E002C088E090E02196281739072CF49F
:1011F00061E08E810E948208EBCF8BE39DE0019736
:10120000F1F760E08091A0020E94530860E08091B5
:10121000A2020E9453088091A1028F3F19F060E062
:101220000E9453088091AB0284FD20C063E08CE9EA
:1012300092E00E94E806CBE4D6E4CE010197F1F7F4
:1012400063E08CE992E00E94E8062197F1F763E001
:101250008CE992E00E94E80683E592E00197F1F7BD
:1012600062E08CE992E00E94E80615C080620E946C
:10127000BA078BE496E40197F1F78091AB028062A4
:101280000E94BA0783E592E00197F1F78091AB02E3
:1012900080620E94BA078091AB0280620E94BA0706
:1012A00084E08093AC028CE00E94BA070E94C007E1
:1012B00082E08093AD0286E0DF91CF910C94BA0773
:1012C0003FB7F8948091B9029091BA02A091BB0205
:1012D000B091BC0226B5A89B05C02F3F19F001961E
:1012E000A11DB11D3FBFBA2FA92F982F8827820FAC
:1012F000911DA11DB11DBC01CD0142E0660F771FFC
:10130000881F991F4A95D1F708952FB7F8946091D7
:10131000B5027091B6028091B7029091B8022FBFCA
:1013200008958F929F92AF92BF92FF920F931F9357
:10133000CF93DF93F82E8B0180918E0290918F02D4
:1013400009970CF45DC00E9485098090BF029090BF
:10135000C002A090C102B090C202DC01CB0188198A
:101360009909AA09BB098F3E9240A105B10508F46D
:1013700058C0C0E0D0E06F2D8C2F0E94E70780910D
:10138000BD029091BE028C0F9D1F80179107BCF487
:1013900020919402309195028217930760F4209176
:1013A0009002309191022115310529F0F901E80FE1
:1013B000F91F808101C080E00E94F90704C081E923
:1013C00091E00E9402082196C830D105A1F68091D3
:1013D000BD029091BE020196B801665071090E944B
:1013E0008C179093BE028093BD020E948509609382
:1013F000BF027093C0028093C1029093C20211C0D9
:101400006F2D80E00E94E70780E992E0DF91CF91A5
:101410001F910F91FF90BF90AF909F908F900C9471
:10142000DE07DF91CF911F910F91FF90BF90AF909A
:101430009F908F9008950F931F93CF93DF93C82FA2
:10144000D62F86E0C89FF0011124E15EFD4F11A266
:10145000878D90A181309105D9F040F082309105BF
:10146000A9F10397F1F560E070E034C06623C9F19B
:1014700061E070E08C2F0E946E070E9485096093E6
:101480007702709378028093790290937A0229C050
:101490000E948509009177021091780220917902CB
:1014A00030917A02AB01BC01401B510B620B730BF4
:1014B0008091890290918A02A0E0B0E0841795079C
:1014C000A607B70718F462E070E004C0D11109C0A4
:1014D00063E070E08C2FDF91CF911F910F910C94FE
:1014E0006E07DF91CF911F910F9108951F920F9278
:1014F0000FB60F9211242F933F938F939F93AF9327
:10150000BF938091B5029091B602A091B702B091BD
:10151000B8023091B40223E0230F2D3720F4019656
:10152000A11DB11D05C026E8230F0296A11DB11D06
:101530002093B4028093B5029093B602A093B702B1
:10154000B093B8028091B9029091BA02A091BB0207
:10155000B091BC020196A11DB11D8093B902909378
:10156000BA02A093BB02B093BC02BF91AF919F910E
:101570008F913F912F910F900FBE0F901F90189554
:10158000CF93DF9300D000D000D0CDB7DEB77894F2
:1015900084B5826084BD84B5816084BD85B5826078
:1015A00085BD85B5816085BD80916E008160809329
:1015B0006E00109281008091810082608093810092
:1015C00080918100816080938100809180008160A2
:1015D000809380008091B10084608093B1008091FD
:1015E000B00081608093B00080917A008460809325
:1015F0007A0080917A00826080937A0080917A00EC
:10160000816080937A0080917A00806880937A006C
:101610001092C10062E088E00E94BE080E94C007EC
:1016200060E080E00E94E70783ED91E00E940208FD
:1016300010E061E0812F0E94E7076FEF8CE992E0F4
:101640000E9468070E9460094B015C016AEAC62E8D
:10165000D12CE12CF12C0E946009DC01CB0188190E
:101660009909AA09BB09883E9340A105B10598F3E1
:1016700021E0C21AD108E108F10838EE830E33E008
:10168000931EA11CB11CC114D104E104F10419F78B
:101690001F5F183071F60E94C007E0E1F2E080E3BE
:1016A000819328E132E02E173F07D1F7412C512CCE
:1016B000320143945AE0C52ED12C80911E0288231A
:1016C00039F060918E0270918F0280E090E00AC044
:1016D00080911D02882341F060911B0270911C02D1
:1016E00081E090E00E94910981E080938B020E944A
:1016F000850900917B0210917C0220917D0230913E
:101700007E02AB01BC01401B510B620B730B80913D
:10171000870290918802A0E0B0E084179507A607A1
:10172000B70708F0E7C010E080918502181710F0A5
:10173000312C42C0E0918102F0918202E10FF11D53
:1017400062E080810E9482081F5FEECF022D10E0D0
:10175000E0918102F0918202E00FF11F80810E94EE
:101760002A080C5F1F4F000F111FF801E15EFD4FAB
:10177000892B09F04BC08081918188299929918317
:101780008083239480918502281600F3E0918302E0
:10179000F0918402EE0DFF1D61E080810E945308EC
:1017A0008091830290918402FC01EE0DFF1D60E0A8
:1017B00080810E948208339480918602381658F501
:1017C000E32CF12CE0918302F0918402EE0DFF1DD9
:1017D00061E080810E948208E0918302F09184029E
:1017E000EE0DFF1D60E080810E945308D301C2010D
:1017F000032C04C0880F991FAA1FBB1F0A94D2F79D
:101800004C015C01A094B094212CBCCF80819181CB
:101810008A219B21B4CF0FE112E0F801878D90A1BE
:10182000892B31F4148E8FEF9FEF968F858F11A245
:1018300036962BE532E02E173F0781F7B12C8091C9
:101840008502B81670F5A12CEB2CF12CC701880F7E
:10185000991FFC01E95DFD4F7F0120918602A216D0
:10186000F0F4F701408151810A2C02C0569547954A
:101870000A94E2F7642F6170B29E900111242A0D40
:10188000311DEFE1F2E080E0A58DB68D2A173B0710
:1018900009F438C28F5F36968A30B1F716C2B39416
:1018A000CECFF12CF80181A1882311F0FF24F3940D
:1018B0000A5F1F4F2BE532E02017310799F70E948E
:1018C000850960937B0270937C0280937D029093E4
:1018D0007E02FF2079F080914002882359F08091A8
:1018E0003E0290913F02019729F480913B028111C1
:1018F00004C0E3C110928B02E0C120911902309123
:101900001A0221303105F1F50E94C007E0E1F2E052
:1019100080E3819332E0E831F307D9F781E090E08A
:1019200090931C0180931B0110920C0210920D02E7
:1019300010920E0210920F021092080210920902E9
:1019400010920A0210920B0262E971E080E992E0C3
:101950000E94D80310921E0210921D0210928F0254
:1019600010928E0210921C0210921B0210921A0208
:101970001092190289E090E090931A018093190166
:1019800081E0C6C0813431F48091190190911A012F
:10199000019607C0823499F48091190190911A013F
:1019A0000197B6010E948C170A96B6010E948C1707
:1019B00090931A01809319010E94D6017EC183344D
:1019C00061F40E94C007E0E1F2E080E3819328E146
:1019D00032E02E173F07D1F7A1CF843409F01AC1A6
:1019E0008091190190911A010597049708F043C05E
:1019F00080E192E00E944B0F4B015C0160930C026E
:101A000070930D0280930E0290930F020E940F04B8
:101A1000E0901901F0901A01C7010E94320600E01F
:101A200010E09801B501A401C7010E9492026093E1
:101A300004027093050280930602909307020E94AD
:101A40000F0481E080931E0261E080E00E94E707BE
:101A50008AE891E00E94020861E080E00E94E707C6
:101A60006091040270910502809106029091070234
:101A70000E948B04C8C020E030E0A90160910C02F4
:101A800070910D0280910E0290910F020E94F0124F
:101A9000811141C080E192E00E944B0F60930C02E3
:101AA00070930D0280930E0290930F020E940F0418
:101AB0008091190190911A010E94320660E080E045
:101AC0000E94E7078AE891E00E94020861E080E056
:101AD0000E94E7078AE891E00E94020880918E0246
:101AE00090918F0290931C0280931B0281E080935F
:101AF0001D02E0E1F2E080E3819328E132E02E175D
:101B00003F07D1F781E090E090931C0180931B0187
:101B100080931801D2C080E192E00E944B0F4B01EC
:101B20005C01609308027093090280930A0290930B
:101B30000B02E0901901F0901A0140910C025091B3
:101B40000D0260910E0270910F0295018401C70190
:101B50000E94920260930402709305028093060231
:101B6000909307020E940F0460E972E0CE01019693
:101B70000E94060463EC71E0CE0101960E949E0370
:101B8000BC0180E992E00E94EF03CE0101960E9421
:101B9000660280918E0290918F02029690938F023E
:101BA00080938E0281E080931E0233E0E316F104FD
:101BB00089F420E030E0A901C501B4010E94F012CF
:101BC000811108C061E00E94E7078BED91E00E945F
:101BD000020819C061E080E00E94E7078AE891E00E
:101BE0000E94020861E080E00E94E7076091040221
:101BF0007091050280910602909107020E948B0469
:101C000081E08093180181E090E090931A02809324
:101C1000190253C0833229F580911801882371F08D
:101C20008DE28093100260E080E00E94E7078091DF
:101C300010020E94F9071092180136C081E08093CB
:101C4000180180E38093100260E080E00E94E707C3
:101C500080E20E94F90780918E0290918F02019795
:101C600028C000911B0110911C01083011052CF5B2
:101C7000E1E1F2E09181919327E132E02E173F07F5
:101C8000C9F78A3209F48EE28093170260E0802F50
:101C90000E94E707809117020E94F9070F5F1F4F0C
:101CA00010931C0100931B0180918E0290918F0272
:101CB000019690938F0280938E0280E090E0892BB2
:101CC00009F4FBCC0E940000F8CC40FF1DC0EFE1FE
:101CD000F2E080E090E0448D411118C0E0917F0275
:101CE000F0918002E20FF31F408156E0589FF0010F
:101CF000599FF00D1124E15EFD4F448F368F258FE3
:101D000010A2178E0E941B0AA394A7CD01963696A7
:101D10008A30910501F7F8CF62E971E088EF91E030
:101D20000E94760462E971E08EEF91E00E947604F1
:101D300062E971E086E992E00E94760462E971E06E
:101D400080E992E00E94760410922102109225020E
:101D5000109224021092260283E391E090932002D5
:101D600080931F02EFE1F2E0148E10A2178E11A2F1
:101D7000369682E0EB35F807B9F784E091E090936E
:101D800082028093810280E091E0909384028093AC
:101D9000830284E0809385028093860288E091E04C
:101DA0009093800280937F028AE090E09093880273
:101DB0008093870284EF91E090938A028093890256
:101DC00010928D0210928C0210927B0210927C0273
:101DD00010927D0210927E0210928B0210929F024E
:101DE00010929E0287E291E090939D0280939C0264
:101DF0008AE08093A0028FEF8093A1028BE0809312
:101E0000A2028CE08093A3028DE08093A4028EE076
:101E10008093A5028FE08093A6021092A7021092F1
:101E2000A8021092A9021092AA021092AB0261E0DD
:101E300080E10C94BE0880E992E00E94660286E987
:101E400092E00E9466028EEF91E00E94660288EFA7
:101E500091E00C946602EF920F931F93CF93DF9360
:101E6000E80147FD02C034E001C034E1042E000C5B
:101E7000550B57FF03C0519541955109E32E022F91
:101E8000242FAE010E944F0FCE01DF91CF911F9101
:101E90000F91EF900895662777270C94A910A9E079
:101EA000B0E0E5E5FFE00C9428146A01122FB02E93
:101EB0002BE3201720F0FF24F394F00E02C02CE354
:101EC000F22E0F2D27E0AE014F5F5F4F0E94F711FA
:101ED000BC014981842F8970813031F0E1FC06C05A
:101EE000E0FE06C090E205C09DE203C09BE201C097
:101EF00090E05E2D507143FF3CC0911102C083E021
:101F000001C084E0811718F4212F281B01C020E0B4
:101F100051110BC0F601822F30E2882319F0319362
:101F20008150FBCFC20ED11C20E0992329F0D601AD
:101F30009C93F60131966F01C6010396E2FE0AC03A
:101F40003EE4D6013C9341E411964C9311971296CE
:101F50003C9306C03EE6F601308341E6418332837E
:101F6000FC01322F40E2332309F442C04193315047
:101F7000FACF42FF44C0911102C083E001C084E067
:101F8000811718F4212F281B01C020E051110BC02C
:101F9000F601822F30E2882319F031938150FBCF74
:101FA000C20ED11C20E0992329F0D6019C93F601A2
:101FB00031966F01C6010396E2FE0BC039E4D601EB
:101FC0003C933EE411963C93119736E412963C9371
:101FD00007C039E6F60130833EE6318336E63283C8
:101FE000FC01322F40E2332319F041933150FBCFF3
:101FF000FC01E20FF11D10828EEF9FEFA6C021E0E1
:1020000030E0911102C020E030E0161617061CF4F3
:10201000FB01319602C0E1E0F0E02E0F3F1FBB2034
:1020200021F0EB2DF0E0319602C0E0E0F0E02E0F61
:102030003F1FE12FF0E02E173F071CF4121B212F4A
:1020400001C020E08E2D887159F4F601822F30E214
:10205000882319F031938150FBCFC20ED11C20E0B0
:10206000992329F0D6019C93F60131966F01511105
:102070000BC0F601822F90E3882319F091938150D1
:10208000FBCFC20ED11C20E00F2D060F9A81342FFA
:10209000307144FF03C0913309F40150101624F449
:1020A000093018F008E001C001E0AB0177FF02C081
:1020B00040E050E0FB01E41BF50BA1E0B0E0AC0F09
:1020C000BD1FEA0FFB1F8EE2A82E4B01801A91085C
:1020D0000B2D10E01195019511094F3FBFEF5B07E4
:1020E00021F4D601AC9211966D01641775072CF09E
:1020F0008416950614F4818101C080E34150510992
:102100003196D60111967D014017510724F0D60172
:102110008C936701E2CF6417750739F4963320F486
:10212000953319F4311101C081E3F6018083F70181
:10213000822F90E2882319F091938150FBCFF70111
:10214000E20FF11D108280E090E02996ECE00C9403
:102150004414A0E0B0E0EFEAF0E10C942814EC01A4
:102160006B016115710519F0FB01918380837E017C
:10217000FFEFEF1AFF0A0881802F90E00E94CF1234
:10218000892B11F0E701F3CF0D3239F47E0182E0A3
:10219000E80EF11C098111E008C00B3229F47E0120
:1021A00092E0E90EF11C098110E0E701219743E07C
:1021B00050E060E771E0CE010E94D812892BC1F493
:1021C000239645E050E06BE671E0CE010E94D81204
:1021D000892B09F42596C114D10419F0F601D18395
:1021E000C0831111F6C060E070E080E89FE7FAC09C
:1021F00043E050E068E671E0CE010E94D812892BDE
:1022000059F4C114D10409F4E9C0F2E0EF0EF11C55
:10221000F601F182E082E2C020E030E0A901C0E0F6
:10222000D0E0F70180EDA82EA00E89E08A1530F1EC
:10223000912F9260B92E812F887012FF04C08111F6
:1022400024C0219622C081112197A5E0B0E00E9410
:102250001714DC01CB01880F991FAA1FBB1F9C011B
:10226000AD012A0D311D411D511D283989E938075D
:10227000480789E1580748F0166006C09EEFA9128A
:102280000AC013FD40C01860B12E8FEFE81AF80A9B
:1022900000811B2DC6CF802F8F7D8534A1F58081D5
:1022A0008D3211F4106106C08B3221F0319661E05D
:1022B00070E004C08181329662E070E080538A3021
:1022C00018F0E61BF70B1FC060E070E060389CE080
:1022D00079075CF4DB01AA0FBB1FAA0FBB1F6A0FB3
:1022E0007B1F660F771F680F711D3196DF011197F5
:1022F0008C9180538A3050F314FF03C0719561951F
:102300007109C60FD71F11FF08C0C114D10429F0ED
:10231000CF010197F60191838083CA01B9010E9420
:10232000F512212F2370233019F04B015C0106C0F8
:102330004B015C01B7FAB094B7F8B09420E030E0FC
:10234000A901C501B4010E94F012882309F43EC01E
:10235000D7FF06C0D195C195D10907E811E002C0A9
:102360000FE911E06801F8E1CF1AD10890E2E92EF7
:10237000F12CCE15DF0574F0F801259135914591CA
:102380005491C501B4010E9456134B015C01CE1952
:10239000DF09EFCF04501109F594E7940C151D05E2
:1023A00041F78A2D880F8B2D881F8F3F49F020E041
:1023B00030E0A901C501B4010E94F012811106C0EC
:1023C00082E290E09093C5028093C402C501B401FB
:1023D00009C060E070E080E89FEF04C060E070E05A
:1023E00080EC9FE7CDB7DEB7ECE00C9444142830C6
:1023F00008F027E03327DA01990F311D87FD91603E
:1024000000966105710539F432602E5F3D9330E32B
:102410002A95E1F708959F3F30F0803871056105F6
:1024200009F03C5F3C5F3D93913008F08068911D5E
:10243000DF93CF931F930F93FF92EF92192F987F03
:102440009695E92F96959695E90FFF27E350FE4F55
:1024500099273327EE24FF24A701E701059008946C
:10246000079428F4360FE71EF81E491F511D660F0A
:10247000771F881F991F0694A1F70590079428F4E9
:10248000E70EF81E491F561FC11D770F881F991FA1
:10249000661F0694A1F70590079428F4F80E491FCB
:1024A000561FC71FD11D880F991F661F771F0694DF
:1024B000A1F70590079420F4490F561FC71FD81F96
:1024C000990F661F771F881F0694A9F784911095AE
:1024D000177041F0D695C79557954795F794E794AF
:1024E0001A95C1F7E3EAF1E06894159015913591DA
:1024F0006591959105907FE27395E118F10A430B80
:10250000560BC90BD009C0F7E10CF11E431F561F33
:10251000C91FD01D7EF4703311F48A95E6CFE8947C
:10252000015030F0080F0AF40027021708F4202F9A
:102530002395022F7A3328F079E37D932A95E9F7E2
:1025400010C07D932A9589F60694979567953795DF
:1025500017951794E118F10A430B560BC90BD009D4
:1025600098F023957E9173957A3308F070E37C930D
:102570002013B8F77E9170617D9330F0839571E3FD
:102580007D9370E32A95E1F71124EF90FF900F916E
:102590001F91CF91DF91992787FD90950895911113
:1025A0000C94C313803219F089508550C8F70895F0
:1025B000FB01DC014150504088F08D9181341CF0CA
:1025C0008B350CF4805E659161341CF06B350CF436
:1025D000605E861B611171F3990B0895881BFCCF17
:1025E0000E94321308F481E00895E89409C097FB33
:1025F0003EF490958095709561957F4F8F4F9F4FDA
:102600009923A9F0F92F96E9BB279395F69587951D
:1026100077956795B795F111F8CFFAF4BB0F11F4E0
:1026200060FF1BC06F5F7F4F8F4F9F4F16C0882387
:1026300011F096E911C0772321F09EE8872F762FBD
:1026400005C0662371F096E8862F70E060E02AF0FE
:102650009A95660F771F881FDAF7880F96958795EA
:1026600097F90895990F0008550FAA0BE0E8FEEFBF
:1026700016161706E807F907C0F012161306E40746
:10268000F50798F0621B730B840B950B39F40A263F
:1026900061F0232B242B252B21F408950A2609F41D
:1026A000A140A6958FEF811D811D08950E94691399
:1026B0000C94DD130E94CF1338F00E94D61320F043
:1026C000952311F00C94C6130C94CC1311240C9484
:1026D00011140E94EE1370F3959FC1F3950F50E013
:1026E000551F629FF001729FBB27F00DB11D639FC4
:1026F000AA27F00DB11DAA1F649F6627B00DA11D6A
:10270000661F829F2227B00DA11D621F739FB00D0F
:10271000A11D621F839FA00D611D221F749F33277F
:10272000A00D611D231F849F600D211D822F762F18
:102730006A2F11249F5750409AF0F1F088234AF0F5
:10274000EE0FFF1FBB1F661F771F881F9150504061
:10275000A9F79E3F510580F00C94C6130C941114F8
:102760005F3FE4F3983ED4F3869577956795B795E8
:10277000F795E7959F5FC1F7FE2B880F911D969502
:10278000879597F9089599278827089597F99F675E
:1027900080E870E060E008959FEF80EC08950024E9
:1027A0000A941616170618060906089500240A94B6
:1027B00012161306140605060895092E0394000C3C
:1027C00011F4882352F0BB0F40F4BF2B11F460FFCB
:1027D00004C06F5F7F4F8F4F9F4F089557FD9058F4
:1027E000440F551F59F05F3F71F04795880F97FBD5
:1027F000991F61F09F3F79F087950895121613068F
:102800001406551FF2CF4695F1DF08C016161706BD
:102810001806991FF1CF86957105610508940895F2
:10282000E894BB2766277727CB0197F908950E9484
:102830005914A59F900DB49F900DA49F800D911DDC
:10284000112408952F923F924F925F926F927F9240
:102850008F929F92AF92BF92CF92DF92EF92FF92B0
:102860000F931F93CF93DF93CDB7DEB7CA1BDB0B5C
:102870000FB6F894DEBF0FBECDBF09942A88398801
:1028800048885F846E847D848C849B84AA84B98408
:10289000C884DF80EE80FD800C811B81AA81B98114
:1028A000CE0FD11D0FB6F894DEBF0FBECDBFED0128
:1028B0000895A29FB001B39FC001A39F700D811D19
:1028C0001124911DB29F700D811D1124911D089539
:1028D0005058BB27AA270E9480140C94DD130E9435
:1028E000CF1338F00E94D61320F039F49F3F19F42B
:1028F00026F40C94CC130EF4E095E7FB0C94C6136D
:10290000E92F0E94EE1358F3BA1762077307840782
:10291000950720F079F4A6F50C9410140EF4E095C8
:102920000B2EBA2FA02D0B01B90190010C01CA0189
:10293000A0011124FF27591B99F0593F50F4503E34
:1029400068F11A16F040A22F232F342F4427585F26
:10295000F3CF469537952795A795F0405395C9F73E
:102960007EF41F16BA0B620B730B840BBAF09150F6
:10297000A1F0FF0FBB1F661F771F881FC2F70EC095
:10298000BA0F621F731F841F48F487957795679568
:10299000B795F7959E3F08F0B0CF9395880F08F054
:1029A0009927EE0F9795879508950E948415E395D2
:1029B0000C94AD150E94EE140C94DD130E94D613F6
:1029C00058F00E94CF1340F029F45F3F29F00C9497
:1029D000C61351110C9411140C94CC130E94EE13D5
:1029E00068F39923B1F3552391F3951B550BBB273E
:1029F000AA2762177307840738F09F5F5F4F220F83
:102A0000331F441FAA1FA9F335D00E2E3AF0E0E879
:102A100032D091505040E695001CCAF72BD0FE2FC3
:102A200029D0660F771F881FBB1F26173707480757
:102A3000AB07B0E809F0BB0B802DBF01FF2793580F
:102A40005F4F3AF09E3F510578F00C94C6130C94FA
:102A500011145F3FE4F3983ED4F38695779567951C
:102A6000B795F7959F5FC9F7880F911D9695879544
:102A700097F90895E1E0660F771F881FBB1F621763
:102A800073078407BA0720F0621B730B840BBA0B21
:102A9000EE1F88F7E09508950E9453156894B111D0
:102AA0000C94111408950E94F61388F09F5798F023
:102AB000B92F9927B751B0F0E1F0660F771F881F43
:102AC000991F1AF0BA95C9F714C0B13091F00E945D
:102AD0001014B1E008950C941014672F782F8827F4
:102AE000B85F39F0B93FCCF3869577956795B39584
:102AF000D9F73EF490958095709561957F4F8F4FF3
:102B00009F4F08950C94CC130E94F613D8F3E894C9
:102B1000E0E0BB279F57F0F02AED3FE049EC06C00C
:102B2000EE0FBB0F661F771F881F28F0B23A6207AF
:102B30007307840728F0B25A620B730B840BE3957A
:102B40009A9572F7803830F49A95BB0F661F771FFD
:102B5000881FD2F790480C947F16EF93E0FF07C0D0
:102B6000A2EA2AED3FE049EC5FEB0E9480140E944C
:102B7000DD130F90039401FC9058E4EAF0E00C940C
:102B8000B2160E94321308F48FEF0895FA01EE0F87
:102B9000FF1F309621053105A1F16115710561F422
:102BA0008038BFE39B0749F168949038810561F054
:102BB0008038BFEF9B0741F099234AF5FF3FE105BD
:102BC0003105210519F1E8940894E795D901AA2364
:102BD00029F4AB2FBE2FF85FD0F310C0FF5F70F465
:102BE000A695E0F7F73950F019F0FF3A38F49F77DF
:102BF0009F930DD00F9007FC9058089546F00C94C9
:102C0000CC1360E070E080E89FE308954FE79F7782
:102C10005F934F933F932F930E9410172F913F91F3
:102C20004F915F910E9456130C944B169F930E94F4
:102C300084150F9007FCEE5F0C94AD15DF93D92F30
:102C40000E948415E695D7952AED3FE049E45FE3BD
:102C5000B33A6207730784079507D7953AF0A2EA5B
:102C600049EC90680E9480140E94DD13E2ECF0E0D1
:102C70000E94B216DD0F13F00E94C616DD0F0BF492
:102C80009058DF91089529F416F00C94C6130C9413
:102C900010140C94CC130E94F613A8F39638A0F7E6
:102CA00007F80F92E8942BE33AEA48EB5FE70E94BB
:102CB0006C130F920F920F924DB75EB70F920E9456
:102CC0005817E5EEF0E00E948B164F915F91EF915F
:102CD000FF91E595EE1FFF1F49F0FE57E06844277E
:102CE000EE0F441FFA95E1F74195550B0E94D2165D
:102CF0000F9007FE0C94C61608959F3F31F0915037
:102D000020F4879577956795B795880F911D9695CF
:102D1000879597F90895DF93CF931F930F93FF92B1
:102D2000EF92DF927B018C01689406C0DA2EEF01EE
:102D30000E946913FE01E894A59125913591459172
:102D40005591A6F3EF010E948014FE019701A8019E
:102D5000DA9469F7DF90EF90FF900F911F91CF9178
:102D6000DF9108959F938F937F936F93FF93EF93DA
:102D70009B01AC010E945613EF91FF910E948B16AC
:102D80002F913F914F915F910C9456139B01AC0191
:102D900060E070E080E89FE30C94DA140C94C613B2
:102DA0000C947D160E94F613D8F39923C9F3940F5F
:102DB000511DA3F39150504094F059F0882332F004
:102DC000660F771F881F91505040C1F79E3F5105F5
:102DD0002CF7880F911D9695879597F908955F3F79
:102DE000ACF0983E9CF0BB27869577956795B79594
:102DF00008F4B1609395C1F7BB0F58F711F460FF69
:102E0000E8CF6F5F7F4F8F4F9F4FE3CF0C9411142C
:102E100016F00C947D160C94CC1368940C94C61385
:102E20000E94F613A8F39923C1F3AEF3DF93CF9377
:102E30001F930F93FF92C92FDD2788232AF0219734
:102E4000660F771F881FDAF720E030E040E85FEB7D
:102E50009FE3883920F0803E38F021968F770E94DA
:102E60006914EDE0F1E004C00E946914EAE3F1E0C6
:102E70000E948B168B01BE01EC01FB2E6F5771096E
:102E80007595771F880B990B0E94F71228E132E79E
:102E900041E35FE30E946913AF2D9801AE01FF90FB
:102EA0000F911F91CF91DF910E9480140C94DD133C
:102EB000FA01DC01AA0FBB1F9B01AC01BF5728F42C
:102EC000222733274427507820C0B75190F4AB2FE6
:102ED0000024469537952795011CA395D2F3002031
:102EE00071F0220F331F441FB395DAF30ED00C9408
:102EF000681461307105A0E88A07B94630F49B0177
:102F0000AC016627772788279078309621F02083B8
:102F1000318342835383089597FB072E16F4009460
:102F200007D077FD09D00E94A61707FC05D03EF414
:102F3000909581959F4F0895709561957F4F089565
:102F4000EE0FFF1F0590F491E02D0994AA1BBB1B07
:102F500051E107C0AA1FBB1FA617B70710F0A61B99
:102F6000B70B881F991F5A95A9F780959095BC01BA
:102F7000CD0108950F931F93CF93DF938230910576
:102F800010F482E090E0E091C802F091C90220E0E4
:102F900030E0A0E0B0E0309719F14081518102812A
:102FA000138148175907C8F08417950769F41097DB
:102FB00031F012960C93129713961C9327C000932E
:102FC000C8021093C90222C02115310519F0421719
:102FD000530718F49A01BD01EF01DF01F801DBCFBF
:102FE00021153105F9F0281B390B2430310580F407
:102FF0008A819B816115710521F0FB019383828396
:1030000004C09093C9028093C802FE01329644C066
:10301000FE01E20FF31F819391932250310939830E
:1030200028833AC02091C6023091C702232B41F475
:1030300020911F01309120013093C7022093C602D6
:1030400020911D0130911E012115310541F42DB74C
:103050003EB74091210150912201241B350BE09194
:10306000C602F091C702E217F307A0F42E1B3F0B34
:103070002817390778F0AC014E5F5F4F24173507EA
:1030800048F04E0F5F1F5093C7024093C6028193D2
:10309000919302C0E0E0F0E0CF01DF91CF911F916A
:1030A0000F910895CF93DF93009709F481C0FC013D
:1030B000329713821282A091C802B091C902109770
:1030C00081F420813181820F931F2091C6023091BB
:1030D000C7022817390751F5F093C702E093C602DB
:1030E00067C0ED0120E030E0CE17DF0740F44A81F1
:1030F0005B819E0141155105F1F0EA01F5CFD383C3
:10310000C28340815181840F951FC817D90759F494
:1031100088819981840F951F0296918380838A818B
:103120009B81938382832115310529F4F093C90291
:10313000E093C8023DC0E901FB83EA8349915991BC
:10314000C40FD51FEC17FD0761F480819181840FB6
:10315000951F0296E90199838883828193819B83DD
:103160008A83E0E0F0E012968D919C91139700978E
:1031700019F0FD01DC01F7CF8D919C9111979D0114
:103180002E5F3F4F820F931F2091C6023091C702DE
:103190002817390769F4309729F41092C902109260
:1031A000C80202C013821282B093C702A093C60263
:1031B000DF91CF910895A0E0B0E0E1EEF8E10C944A
:1031C0002614EC01009721F4CB010E94BA17B4C079
:1031D000FC01E60FF71F9C0122503109E217F307AB
:1031E00008F4A8C0D9010D911C9111970617170773
:1031F000B0F00530110508F49BC0C801049786178C
:10320000970708F495C002501109061B170B01938C
:1032100011936D937C93CF010E94521889C05B017A
:10322000A01AB10A4C01800E911EA091C802B09163
:10323000C902612C712CE12CF12C109709F446C0C5
:103240008D919C911197A815B905B1F56C0142E0DB
:10325000C40ED11CCA14DB0478F14C018A189B08F7
:10326000640142E0C40ED11C1296BC9012971396D2
:10327000AC91B5E0CB16D10440F0B282A383918229
:103280008082D9016D937C9309C00E5F1F4F800F20
:10329000911FF90191838083EB2DFA2FE114F10442
:1032A00031F0D7011396FC93EE93129741C0F0933F
:1032B000C902E093C8023CC06816790608F43C01D4
:1032C0007D0112960D90BC91A02DB7CF8091C602C2
:1032D0009091C70288169906E1F466167706C8F43D
:1032E00080911D0190911E01009741F48DB79EB70A
:1032F0004091210150912201841B950BE817F90799
:10330000C8F4F093C702E093C602F90171836083A9
:103310000FC0CB010E94BA177C01009759F0A80199
:10332000BE010E94A619CE010E945218C70104C016
:10333000CE0102C080E090E0CDB7DEB7EEE00C94A5
:10334000421481E090E0F8940C94B619FB01DC0182
:1033500002C001900D9241505040D8F70895FB01F2
:10336000DC0101900D920020E1F7089511E0CDE716
:10337000D1E004C0FE010E94A0172196CE37D107EC
:06338000C9F7F894FFCF2D
:103386000607080902030405413332314236353453
:10339600433938374423302A01090001000000CAA6
:1033A600028000000000006807A801D301D20100D6
:1033B60000000009020D0227022B202020202020D9
:1033C60020002D20202020202020007820202020D2
:1033D600202020002F20202020202020005E2020DA
:1033E6002020202020005E32202020202020007374
:1033F600696E202020202000636F7320202020206B
:103406000074616E20202020200020202020202013
:10341600202000546F6F536D616C6C00546F6F20E9
:1034260042696720002D546F6F20426967002B00A8
:103436002D0078002F005E005E323D200073696E1D
:103446002800293D2000636F73280074616E2800F0
:103456006628004C4F4144494E47004552524F5250
:02346600000064
:00000001FF
